{
  "address": "0x70B5c88f7fDb3B13b196c3ff2864f360a4effAAD",
  "abi": [
    {
      "inputs": [
        {
          "internalType": "address",
          "name": "_owner",
          "type": "address"
        },
        {
          "internalType": "address",
          "name": "_rewardsDistribution",
          "type": "address"
        },
        {
          "internalType": "address",
          "name": "_rewardsToken",
          "type": "address"
        },
        {
          "internalType": "address",
          "name": "_stakingToken",
          "type": "address"
        }
      ],
      "stateMutability": "nonpayable",
      "type": "constructor"
    },
    {
      "anonymous": false,
      "inputs": [
        {
          "indexed": false,
          "internalType": "address",
          "name": "oldOwner",
          "type": "address"
        },
        {
          "indexed": false,
          "internalType": "address",
          "name": "newOwner",
          "type": "address"
        }
      ],
      "name": "OwnerChanged",
      "type": "event"
    },
    {
      "anonymous": false,
      "inputs": [
        {
          "indexed": false,
          "internalType": "address",
          "name": "newOwner",
          "type": "address"
        }
      ],
      "name": "OwnerNominated",
      "type": "event"
    },
    {
      "anonymous": false,
      "inputs": [
        {
          "indexed": false,
          "internalType": "bool",
          "name": "isPaused",
          "type": "bool"
        }
      ],
      "name": "PauseChanged",
      "type": "event"
    },
    {
      "anonymous": false,
      "inputs": [
        {
          "indexed": false,
          "internalType": "address",
          "name": "token",
          "type": "address"
        },
        {
          "indexed": false,
          "internalType": "uint256",
          "name": "amount",
          "type": "uint256"
        }
      ],
      "name": "Recovered",
      "type": "event"
    },
    {
      "anonymous": false,
      "inputs": [
        {
          "indexed": false,
          "internalType": "uint256",
          "name": "reward",
          "type": "uint256"
        }
      ],
      "name": "RewardAdded",
      "type": "event"
    },
    {
      "anonymous": false,
      "inputs": [
        {
          "indexed": true,
          "internalType": "address",
          "name": "user",
          "type": "address"
        },
        {
          "indexed": false,
          "internalType": "uint256",
          "name": "reward",
          "type": "uint256"
        }
      ],
      "name": "RewardPaid",
      "type": "event"
    },
    {
      "anonymous": false,
      "inputs": [
        {
          "indexed": false,
          "internalType": "uint256",
          "name": "newDuration",
          "type": "uint256"
        }
      ],
      "name": "RewardsDurationUpdated",
      "type": "event"
    },
    {
      "anonymous": false,
      "inputs": [
        {
          "indexed": true,
          "internalType": "address",
          "name": "user",
          "type": "address"
        },
        {
          "indexed": false,
          "internalType": "uint256",
          "name": "amount",
          "type": "uint256"
        }
      ],
      "name": "Staked",
      "type": "event"
    },
    {
      "anonymous": false,
      "inputs": [
        {
          "indexed": true,
          "internalType": "address",
          "name": "user",
          "type": "address"
        },
        {
          "indexed": false,
          "internalType": "uint256",
          "name": "amount",
          "type": "uint256"
        }
      ],
      "name": "Withdrawn",
      "type": "event"
    },
    {
      "inputs": [],
      "name": "acceptOwnership",
      "outputs": [],
      "stateMutability": "nonpayable",
      "type": "function"
    },
    {
      "inputs": [
        {
          "internalType": "address",
          "name": "account",
          "type": "address"
        }
      ],
      "name": "balanceOf",
      "outputs": [
        {
          "internalType": "uint256",
          "name": "",
          "type": "uint256"
        }
      ],
      "stateMutability": "view",
      "type": "function"
    },
    {
      "inputs": [
        {
          "internalType": "address",
          "name": "account",
          "type": "address"
        }
      ],
      "name": "earned",
      "outputs": [
        {
          "internalType": "uint256",
          "name": "",
          "type": "uint256"
        }
      ],
      "stateMutability": "view",
      "type": "function"
    },
    {
      "inputs": [],
      "name": "exit",
      "outputs": [],
      "stateMutability": "nonpayable",
      "type": "function"
    },
    {
      "inputs": [],
      "name": "getReward",
      "outputs": [],
      "stateMutability": "nonpayable",
      "type": "function"
    },
    {
      "inputs": [],
      "name": "getRewardForDuration",
      "outputs": [
        {
          "internalType": "uint256",
          "name": "",
          "type": "uint256"
        }
      ],
      "stateMutability": "view",
      "type": "function"
    },
    {
      "inputs": [],
      "name": "lastPauseTime",
      "outputs": [
        {
          "internalType": "uint256",
          "name": "",
          "type": "uint256"
        }
      ],
      "stateMutability": "view",
      "type": "function"
    },
    {
      "inputs": [],
      "name": "lastTimeRewardApplicable",
      "outputs": [
        {
          "internalType": "uint256",
          "name": "",
          "type": "uint256"
        }
      ],
      "stateMutability": "view",
      "type": "function"
    },
    {
      "inputs": [],
      "name": "lastUpdateTime",
      "outputs": [
        {
          "internalType": "uint256",
          "name": "",
          "type": "uint256"
        }
      ],
      "stateMutability": "view",
      "type": "function"
    },
    {
      "inputs": [
        {
          "internalType": "address",
          "name": "_owner",
          "type": "address"
        }
      ],
      "name": "nominateNewOwner",
      "outputs": [],
      "stateMutability": "nonpayable",
      "type": "function"
    },
    {
      "inputs": [],
      "name": "nominatedOwner",
      "outputs": [
        {
          "internalType": "address",
          "name": "",
          "type": "address"
        }
      ],
      "stateMutability": "view",
      "type": "function"
    },
    {
      "inputs": [
        {
          "internalType": "uint256",
          "name": "reward",
          "type": "uint256"
        }
      ],
      "name": "notifyRewardAmount",
      "outputs": [],
      "stateMutability": "nonpayable",
      "type": "function"
    },
    {
      "inputs": [],
      "name": "owner",
      "outputs": [
        {
          "internalType": "address",
          "name": "",
          "type": "address"
        }
      ],
      "stateMutability": "view",
      "type": "function"
    },
    {
      "inputs": [],
      "name": "paused",
      "outputs": [
        {
          "internalType": "bool",
          "name": "",
          "type": "bool"
        }
      ],
      "stateMutability": "view",
      "type": "function"
    },
    {
      "inputs": [],
      "name": "periodFinish",
      "outputs": [
        {
          "internalType": "uint256",
          "name": "",
          "type": "uint256"
        }
      ],
      "stateMutability": "view",
      "type": "function"
    },
    {
      "inputs": [
        {
          "internalType": "address",
          "name": "tokenAddress",
          "type": "address"
        },
        {
          "internalType": "uint256",
          "name": "tokenAmount",
          "type": "uint256"
        }
      ],
      "name": "recoverERC20",
      "outputs": [],
      "stateMutability": "nonpayable",
      "type": "function"
    },
    {
      "inputs": [],
      "name": "rewardPerToken",
      "outputs": [
        {
          "internalType": "uint256",
          "name": "",
          "type": "uint256"
        }
      ],
      "stateMutability": "view",
      "type": "function"
    },
    {
      "inputs": [],
      "name": "rewardPerTokenStored",
      "outputs": [
        {
          "internalType": "uint256",
          "name": "",
          "type": "uint256"
        }
      ],
      "stateMutability": "view",
      "type": "function"
    },
    {
      "inputs": [],
      "name": "rewardRate",
      "outputs": [
        {
          "internalType": "uint256",
          "name": "",
          "type": "uint256"
        }
      ],
      "stateMutability": "view",
      "type": "function"
    },
    {
      "inputs": [
        {
          "internalType": "address",
          "name": "",
          "type": "address"
        }
      ],
      "name": "rewards",
      "outputs": [
        {
          "internalType": "uint256",
          "name": "",
          "type": "uint256"
        }
      ],
      "stateMutability": "view",
      "type": "function"
    },
    {
      "inputs": [],
      "name": "rewardsDistribution",
      "outputs": [
        {
          "internalType": "address",
          "name": "",
          "type": "address"
        }
      ],
      "stateMutability": "view",
      "type": "function"
    },
    {
      "inputs": [],
      "name": "rewardsDuration",
      "outputs": [
        {
          "internalType": "uint256",
          "name": "",
          "type": "uint256"
        }
      ],
      "stateMutability": "view",
      "type": "function"
    },
    {
      "inputs": [],
      "name": "rewardsToken",
      "outputs": [
        {
          "internalType": "contract IERC20",
          "name": "",
          "type": "address"
        }
      ],
      "stateMutability": "view",
      "type": "function"
    },
    {
      "inputs": [
        {
          "internalType": "bool",
          "name": "_paused",
          "type": "bool"
        }
      ],
      "name": "setPaused",
      "outputs": [],
      "stateMutability": "nonpayable",
      "type": "function"
    },
    {
      "inputs": [
        {
          "internalType": "address",
          "name": "_rewardsDistribution",
          "type": "address"
        }
      ],
      "name": "setRewardsDistribution",
      "outputs": [],
      "stateMutability": "nonpayable",
      "type": "function"
    },
    {
      "inputs": [
        {
          "internalType": "uint256",
          "name": "_rewardsDuration",
          "type": "uint256"
        }
      ],
      "name": "setRewardsDuration",
      "outputs": [],
      "stateMutability": "nonpayable",
      "type": "function"
    },
    {
      "inputs": [
        {
          "internalType": "uint256",
          "name": "amount",
          "type": "uint256"
        }
      ],
      "name": "stake",
      "outputs": [],
      "stateMutability": "nonpayable",
      "type": "function"
    },
    {
      "inputs": [],
      "name": "stakingToken",
      "outputs": [
        {
          "internalType": "contract IERC20",
          "name": "",
          "type": "address"
        }
      ],
      "stateMutability": "view",
      "type": "function"
    },
    {
      "inputs": [],
      "name": "totalSupply",
      "outputs": [
        {
          "internalType": "uint256",
          "name": "",
          "type": "uint256"
        }
      ],
      "stateMutability": "view",
      "type": "function"
    },
    {
      "inputs": [
        {
          "internalType": "address",
          "name": "",
          "type": "address"
        }
      ],
      "name": "userRewardPerTokenPaid",
      "outputs": [
        {
          "internalType": "uint256",
          "name": "",
          "type": "uint256"
        }
      ],
      "stateMutability": "view",
      "type": "function"
    },
    {
      "inputs": [
        {
          "internalType": "uint256",
          "name": "amount",
          "type": "uint256"
        }
      ],
      "name": "withdraw",
      "outputs": [],
      "stateMutability": "nonpayable",
      "type": "function"
    }
  ],
  "transactionHash": "0xc564578c570d9676f7f44aa9491b4a0f94cd840ddb256325fd6b415a2453c956",
  "args": [
    "0x754F37225CE0E30639093Af47C16ef057B544b4f",
    "0x754F37225CE0E30639093Af47C16ef057B544b4f",
    "0xB0A44f7201a4bbAA8317C92D863815f7DE4DBcCf",
    "0xF3708a29F23d66dF5Da3FFE1F1D299dfB94c095C"
  ],
  "solcInputHash": "4dfec657ad40ad6fc97891c2e494a70e",
  "bytecode": "0x60806040526000600755600060085562093a806009553480156200002257600080fd5b5060405162001770380380620017708339810160408190526200004591620001ba565b836001600160a01b038116620000a25760405162461bcd60e51b815260206004820152601960248201527f4f776e657220616464726573732063616e6e6f7420626520300000000000000060448201526064015b60405180910390fd5b600080546001600160a01b0319166001600160a01b03831690811782556040805192835260208301919091527fb532073b38c83145e3e5135377a08bf9aab55bc0fd7c1179cd4fb995d2a5159c910160405180910390a15060016003556000546001600160a01b03166200014d5760405162461bcd60e51b815260206004820152601160248201527013dddb995c881b5d5cdd081899481cd95d607a1b604482015260640162000099565b600580546001600160a01b0393841661010002610100600160a81b0319909116179055600680549183166001600160a01b0319928316179055600280549390921692169190911790555062000217565b80516001600160a01b0381168114620001b557600080fd5b919050565b60008060008060808587031215620001d157600080fd5b620001dc856200019d565b9350620001ec602086016200019d565b9250620001fc604086016200019d565b91506200020c606086016200019d565b905092959194509250565b61154980620002276000396000f3fe608060405234801561001057600080fd5b50600436106101e45760003560e01c806372f702f31161010f578063a694fc3a116100a2578063d1af0c7d11610071578063d1af0c7d146103e7578063df136d65146103ff578063e9fad8ee14610408578063ebe2b12b1461041057600080fd5b8063a694fc3a146103b0578063c8f33c91146103c3578063cc1a378f146103cc578063cd3daf9d146103df57600080fd5b80638980f11f116100de5780638980f11f146103615780638b876347146103745780638da5cb5b1461039457806391b4ded9146103a757600080fd5b806372f702f31461033557806379ba5097146103485780637b0a47ee1461035057806380faa57d1461035957600080fd5b80632e1a7d4d116101875780633fc6df6e116101565780633fc6df6e146102b157806353a47bb7146102dc5780635c975abb146102ef57806370a082311461030c57600080fd5b80632e1a7d4d1461027a578063386a95251461028d5780633c6b16ab146102965780633d18b912146102a957600080fd5b806316c38b3c116101c357806316c38b3c1461024457806318160ddd14610257578063197621431461025f5780631c1f78eb1461027257600080fd5b80628cc262146101e95780630700037d1461020f5780631627540c1461022f575b600080fd5b6101fc6101f736600461131c565b610419565b6040519081526020015b60405180910390f35b6101fc61021d36600461131c565b600d6020526000908152604090205481565b61024261023d36600461131c565b610497565b005b610242610252366004611361565b6104f4565b600e546101fc565b61024261026d36600461131c565b61056a565b6101fc610594565b61024261028836600461139b565b6105b2565b6101fc60095481565b6102426102a436600461139b565b610717565b610242610979565b6002546102c4906001600160a01b031681565b6040516001600160a01b039091168152602001610206565b6001546102c4906001600160a01b031681565b6005546102fc9060ff1681565b6040519015158152602001610206565b6101fc61031a36600461131c565b6001600160a01b03166000908152600f602052604090205490565b6006546102c4906001600160a01b031681565b610242610a7a565b6101fc60085481565b6101fc610b64565b61024261036f366004611337565b610b72565b6101fc61038236600461131c565b600c6020526000908152604090205481565b6000546102c4906001600160a01b031681565b6101fc60045481565b6102426103be36600461139b565b610c42565b6101fc600a5481565b6102426103da36600461139b565b610e08565b6101fc610ee2565b6005546102c49061010090046001600160a01b031681565b6101fc600b5481565b610242610f2e565b6101fc60075481565b6001600160a01b0381166000908152600d6020908152604080832054600c909252822054610491919061048b90670de0b6b3a7640000906104859061046690610460610ee2565b90610f51565b6001600160a01b0388166000908152600f602052604090205490610f64565b90610f70565b90610f7c565b92915050565b61049f610f88565b600180546001600160a01b0319166001600160a01b0383169081179091556040519081527f906a1c6bd7e3091ea86693dd029a831c19049ce77f1dce2ce0bab1cacbabce22906020015b60405180910390a150565b6104fc610f88565b60055460ff16151581151514156105105750565b6005805460ff191682151590811790915560ff161561052e57426004555b60055460405160ff909116151581527f8fb6c181ee25a520cf3dd6565006ef91229fcfe5a989566c2a3b8c115570cec5906020016104e9565b50565b610572610f88565b600280546001600160a01b0319166001600160a01b0392909216919091179055565b60006105ad600954600854610f6490919063ffffffff16565b905090565b600260035414156105de5760405162461bcd60e51b81526004016105d59061141c565b60405180910390fd5b6002600355336105ec610ee2565b600b556105f7610b64565b600a556001600160a01b0381161561063e5761061281610419565b6001600160a01b0382166000908152600d6020908152604080832093909355600b54600c909152919020555b600082116106825760405162461bcd60e51b8152602060048201526011602482015270043616e6e6f74207769746864726177203607c1b60448201526064016105d5565b600e5461068f9083610f51565b600e55336000908152600f60205260409020546106ac9083610f51565b336000818152600f60205260409020919091556006546106d8916001600160a01b039091169084610ffa565b60405182815233907f7084f5476618d8e60b11ef0d7d3f06914655adb8793e28ff7f018d4c76d505d5906020015b60405180910390a250506001600355565b6002546001600160a01b031633146107845760405162461bcd60e51b815260206004820152602a60248201527f43616c6c6572206973206e6f742052657761726473446973747269627574696f6044820152691b8818dbdb9d1c9858dd60b21b60648201526084016105d5565b600061078e610ee2565b600b55610799610b64565b600a556001600160a01b038116156107e0576107b481610419565b6001600160a01b0382166000908152600d6020908152604080832093909355600b54600c909152919020555b60075442106107ff576009546107f7908390610f70565b600855610842565b60075460009061080f9042610f51565b9050600061082860085483610f6490919063ffffffff16565b60095490915061083c906104858684610f7c565b60085550505b6005546040516370a0823160e01b815230600482015260009161010090046001600160a01b0316906370a082319060240160206040518083038186803b15801561088b57600080fd5b505afa15801561089f573d6000803e3d6000fd5b505050506040513d601f19601f820116820180604052508101906108c391906113b4565b90506108da60095482610f7090919063ffffffff16565b600854111561092b5760405162461bcd60e51b815260206004820152601860248201527f50726f76696465642072657761726420746f6f2068696768000000000000000060448201526064016105d5565b42600a81905560095461093e9190610f7c565b6007556040518381527fde88a922e0d3b88b24e9623efeb464919c6bf9f66857a65e2bfcf2ce87a9433d9060200160405180910390a1505050565b6002600354141561099c5760405162461bcd60e51b81526004016105d59061141c565b6002600355336109aa610ee2565b600b556109b5610b64565b600a556001600160a01b038116156109fc576109d081610419565b6001600160a01b0382166000908152600d6020908152604080832093909355600b54600c909152919020555b336000908152600d60205260409020548015610a7157336000818152600d6020526040812055600554610a3f916101009091046001600160a01b03169083610ffa565b60405181815233907fe2403640ba68fed3a2f88b7557551d1993f84b99bb10ff833f0cf8db0c5e048690602001610706565b50506001600355565b6001546001600160a01b03163314610af25760405162461bcd60e51b815260206004820152603560248201527f596f75206d757374206265206e6f6d696e61746564206265666f726520796f7560448201527402063616e20616363657074206f776e65727368697605c1b60648201526084016105d5565b600054600154604080516001600160a01b0393841681529290911660208301527fb532073b38c83145e3e5135377a08bf9aab55bc0fd7c1179cd4fb995d2a5159c910160405180910390a160018054600080546001600160a01b03199081166001600160a01b03841617909155169055565b60006105ad42600754611062565b610b7a610f88565b6006546001600160a01b0383811691161415610be25760405162461bcd60e51b815260206004820152602160248201527f43616e6e6f7420776974686472617720746865207374616b696e6720746f6b656044820152603760f91b60648201526084016105d5565b600054610bfc906001600160a01b03848116911683610ffa565b604080516001600160a01b0384168152602081018390527f8c1256b8896378cd5044f80c202f9772b9d77dc85c8a6eb51967210b09bfaa28910160405180910390a15050565b60026003541415610c655760405162461bcd60e51b81526004016105d59061141c565b600260035560055460ff1615610ce35760405162461bcd60e51b815260206004820152603c60248201527f5468697320616374696f6e2063616e6e6f7420626520706572666f726d65642060448201527f7768696c652074686520636f6e7472616374206973207061757365640000000060648201526084016105d5565b33610cec610ee2565b600b55610cf7610b64565b600a556001600160a01b03811615610d3e57610d1281610419565b6001600160a01b0382166000908152600d6020908152604080832093909355600b54600c909152919020555b60008211610d7f5760405162461bcd60e51b815260206004820152600e60248201526d043616e6e6f74207374616b6520360941b60448201526064016105d5565b600e54610d8c9083610f7c565b600e55336000908152600f6020526040902054610da99083610f7c565b336000818152600f6020526040902091909155600654610dd6916001600160a01b03909116903085611078565b60405182815233907f9e71bc8eea02a63969f509818f2dafb9254532904319f9dbda79b67bd34a5f3d90602001610706565b610e10610f88565b6007544211610ead5760405162461bcd60e51b815260206004820152605860248201527f50726576696f7573207265776172647320706572696f64206d7573742062652060448201527f636f6d706c657465206265666f7265206368616e67696e67207468652064757260648201527f6174696f6e20666f7220746865206e657720706572696f640000000000000000608482015260a4016105d5565b60098190556040518181527ffb46ca5a5e06d4540d6387b930a7c978bce0db5f449ec6b3f5d07c6e1d44f2d3906020016104e9565b6000600e5460001415610ef65750600b5490565b6105ad610f25600e54610485670de0b6b3a7640000610f1f600854610f1f600a54610460610b64565b90610f64565b600b5490610f7c565b336000908152600f6020526040902054610f47906105b2565b610f4f610979565b565b6000610f5d82846114ac565b9392505050565b6000610f5d828461148d565b6000610f5d828461146b565b6000610f5d8284611453565b6000546001600160a01b03163314610f4f5760405162461bcd60e51b815260206004820152602f60248201527f4f6e6c792074686520636f6e7472616374206f776e6572206d6179207065726660448201526e37b936903a3434b99030b1ba34b7b760891b60648201526084016105d5565b6040516001600160a01b03831660248201526044810182905261105d90849063a9059cbb60e01b906064015b60408051601f198184030181529190526020810180516001600160e01b03166001600160e01b0319909316929092179091526110b6565b505050565b60008183106110715781610f5d565b5090919050565b6040516001600160a01b03808516602483015283166044820152606481018290526110b09085906323b872dd60e01b90608401611026565b50505050565b600061110b826040518060400160405280602081526020017f5361666545524332303a206c6f772d6c6576656c2063616c6c206661696c6564815250856001600160a01b03166111889092919063ffffffff16565b80519091501561105d5780806020019051810190611129919061137e565b61105d5760405162461bcd60e51b815260206004820152602a60248201527f5361666545524332303a204552433230206f7065726174696f6e20646964206e6044820152691bdd081cdd58d8d9595960b21b60648201526084016105d5565b6060611197848460008561119f565b949350505050565b6060824710156112005760405162461bcd60e51b815260206004820152602660248201527f416464726573733a20696e73756666696369656e742062616c616e636520666f6044820152651c8818d85b1b60d21b60648201526084016105d5565b843b61124e5760405162461bcd60e51b815260206004820152601d60248201527f416464726573733a2063616c6c20746f206e6f6e2d636f6e747261637400000060448201526064016105d5565b600080866001600160a01b0316858760405161126a91906113cd565b60006040518083038185875af1925050503d80600081146112a7576040519150601f19603f3d011682016040523d82523d6000602084013e6112ac565b606091505b50915091506112bc8282866112c7565b979650505050505050565b606083156112d6575081610f5d565b8251156112e65782518084602001fd5b8160405162461bcd60e51b81526004016105d591906113e9565b80356001600160a01b038116811461131757600080fd5b919050565b60006020828403121561132e57600080fd5b610f5d82611300565b6000806040838503121561134a57600080fd5b61135383611300565b946020939093013593505050565b60006020828403121561137357600080fd5b8135610f5d81611505565b60006020828403121561139057600080fd5b8151610f5d81611505565b6000602082840312156113ad57600080fd5b5035919050565b6000602082840312156113c657600080fd5b5051919050565b600082516113df8184602087016114c3565b9190910192915050565b60208152600082518060208401526114088160408501602087016114c3565b601f01601f19169190910160400192915050565b6020808252601f908201527f5265656e7472616e637947756172643a207265656e7472616e742063616c6c00604082015260600190565b60008219821115611466576114666114ef565b500190565b60008261148857634e487b7160e01b600052601260045260246000fd5b500490565b60008160001904831182151516156114a7576114a76114ef565b500290565b6000828210156114be576114be6114ef565b500390565b60005b838110156114de5781810151838201526020016114c6565b838111156110b05750506000910152565b634e487b7160e01b600052601160045260246000fd5b801515811461056757600080fdfea26469706673582212209587eb96ab4118eb9fb22d604dc37943089df26f58c1042490ae35cad945fc8e64736f6c63430008070033",
  "devdoc": {
    "kind": "dev",
    "methods": {
      "setPaused(bool)": {
        "details": "Only the contract owner may call this."
      }
    },
    "version": 1
  },
  "userdoc": {
    "kind": "user",
    "methods": {
      "setPaused(bool)": {
        "notice": "Change the paused state of the contract"
      }
    },
    "version": 1
  },
  "storageLayout": {
    "storage": [
      {
        "astId": 1671,
        "contract": "contracts/StakingRewards.sol:StakingRewards",
        "label": "owner",
        "offset": 0,
        "slot": "0",
        "type": "t_address"
      },
      {
        "astId": 1673,
        "contract": "contracts/StakingRewards.sol:StakingRewards",
        "label": "nominatedOwner",
        "offset": 0,
        "slot": "1",
        "type": "t_address"
      },
      {
        "astId": 1779,
        "contract": "contracts/StakingRewards.sol:StakingRewards",
        "label": "rewardsDistribution",
        "offset": 0,
        "slot": "2",
        "type": "t_address"
      },
      {
        "astId": 10,
        "contract": "contracts/StakingRewards.sol:StakingRewards",
        "label": "_status",
        "offset": 0,
        "slot": "3",
        "type": "t_uint256"
      },
      {
        "astId": 1813,
        "contract": "contracts/StakingRewards.sol:StakingRewards",
        "label": "lastPauseTime",
        "offset": 0,
        "slot": "4",
        "type": "t_uint256"
      },
      {
        "astId": 1815,
        "contract": "contracts/StakingRewards.sol:StakingRewards",
        "label": "paused",
        "offset": 0,
        "slot": "5",
        "type": "t_bool"
      },
      {
        "astId": 1891,
        "contract": "contracts/StakingRewards.sol:StakingRewards",
        "label": "rewardsToken",
        "offset": 1,
        "slot": "5",
        "type": "t_contract(IERC20)663"
      },
      {
        "astId": 1894,
        "contract": "contracts/StakingRewards.sol:StakingRewards",
        "label": "stakingToken",
        "offset": 0,
        "slot": "6",
        "type": "t_contract(IERC20)663"
      },
      {
        "astId": 1897,
        "contract": "contracts/StakingRewards.sol:StakingRewards",
        "label": "periodFinish",
        "offset": 0,
        "slot": "7",
        "type": "t_uint256"
      },
      {
        "astId": 1900,
        "contract": "contracts/StakingRewards.sol:StakingRewards",
        "label": "rewardRate",
        "offset": 0,
        "slot": "8",
        "type": "t_uint256"
      },
      {
        "astId": 1903,
        "contract": "contracts/StakingRewards.sol:StakingRewards",
        "label": "rewardsDuration",
        "offset": 0,
        "slot": "9",
        "type": "t_uint256"
      },
      {
        "astId": 1905,
        "contract": "contracts/StakingRewards.sol:StakingRewards",
        "label": "lastUpdateTime",
        "offset": 0,
        "slot": "10",
        "type": "t_uint256"
      },
      {
        "astId": 1907,
        "contract": "contracts/StakingRewards.sol:StakingRewards",
        "label": "rewardPerTokenStored",
        "offset": 0,
        "slot": "11",
        "type": "t_uint256"
      },
      {
        "astId": 1911,
        "contract": "contracts/StakingRewards.sol:StakingRewards",
        "label": "userRewardPerTokenPaid",
        "offset": 0,
        "slot": "12",
        "type": "t_mapping(t_address,t_uint256)"
      },
      {
        "astId": 1915,
        "contract": "contracts/StakingRewards.sol:StakingRewards",
        "label": "rewards",
        "offset": 0,
        "slot": "13",
        "type": "t_mapping(t_address,t_uint256)"
      },
      {
        "astId": 1917,
        "contract": "contracts/StakingRewards.sol:StakingRewards",
        "label": "_totalSupply",
        "offset": 0,
        "slot": "14",
        "type": "t_uint256"
      },
      {
        "astId": 1921,
        "contract": "contracts/StakingRewards.sol:StakingRewards",
        "label": "_balances",
        "offset": 0,
        "slot": "15",
        "type": "t_mapping(t_address,t_uint256)"
      }
    ],
    "types": {
      "t_address": {
        "encoding": "inplace",
        "label": "address",
        "numberOfBytes": "20"
      },
      "t_bool": {
        "encoding": "inplace",
        "label": "bool",
        "numberOfBytes": "1"
      },
      "t_contract(IERC20)663": {
        "encoding": "inplace",
        "label": "contract IERC20",
        "numberOfBytes": "20"
      },
      "t_mapping(t_address,t_uint256)": {
        "encoding": "mapping",
        "key": "t_address",
        "label": "mapping(address => uint256)",
        "numberOfBytes": "32",
        "value": "t_uint256"
      },
      "t_uint256": {
        "encoding": "inplace",
        "label": "uint256",
        "numberOfBytes": "32"
      }
    }
  }
}